:10168A0041434B0A004E41434B0A00256420202067
:01169A00004F
:1013D100012600012700013F000136010142000200
:1013E1004300000222000102470000024500000202
:1013F100370000023D000002390000023200000205
:10140100240000024900000267000002630000029C
:10141100650000025700000234FFFF024000000295
:031421003B00008D
:0B16D500D2AFD2A8D288D2A9D2AC229A
:0916E000C2AFC2A8C2A9C2AC222B
:0916E900D2AFD2A8D2A9D2AC22E2
:10166300758921758DF4758CFF758AF0759850D244
:041673008ED28C2265
:0300230002131EA7
:10131E00C0E0C0D075D000C000309905753601C24E
:04132E009930984317
:10133200859908C3E527940A74809480502A7428FA
:101342002527F8A6080527E508640A7021C3E527C2
:10135200940A74809480500474288002742725278C
:10136200F87600753F0180037526017527007542E6
:0313720001C2981D
:07137500D000D0D0D0E0321F
:030003000216C81A
:0D16C800C0E00546E54670020545D0E03261
:03000B00021229B5
:10122900C0E0C0D075D000C000B290C3E548954475
:10123900E5436480F8E5476480985006C2B3D2B4A8
:101249008015C3E5489544E5436480F8E547648023
:10125900984004C2B3C2B4C3E5489464E5476480C6
:10126900948040067547007548000548E5487002B6
:101279000547054AE54A70020549C39464E549648E
:10128900809480400C752400752501754900754AC4
:0E12990000758CFF758AF0D000D0D0D0E03206
:061501008B0B8A0C890D22
:10150700E4FF1208F6FEEE60211216E0E4F536124B
:1015170016E98E99E53660FC0FAB0BAA0CA90D8F67
:0A1527008275830012090FFE80DCBC
:011531002297
:0E169B0075A0FFC2B7C2B6D2B620B5FDAFA093
:0116A900221E
:061532007B007A00790B3A
:101538002084028016E475F0011209842085028057
:101548000AE475F0011209842086057E007F0122D5
:0B155800E475F001120984E4FEFF229C
:10147300E4F50BF50CD283C280FB121534EF4E60FA
:1014830004D280802BD280C281121532EF4E6004C9
:10149300D281801CD281C282121532EF4E6004D2F7
:1014A30082800DD282C283121532EF4E6007D2833F
:0914B300AE0BAF0C227EFF7FFF9F
:0114BC00220D
:0612A7008B0B8A0C890D7F
:1012AD00E4F512F513FFFEAB0BAA0CA90D8F828E80
:1012BD008312090FFD3395E0FCED2513F513EC3585
:1012CD0012F5120FBF00010EEF64054E70D9AB0B76
:1012DD00E50D2405F9E4350CFA780E7C007D007ED1
:1012ED00007F031208D0E4F511FB7A00790E12107D
:1012FD00EFAB07AA06AE12AF137C007DFF12094EAD
:10130D00EDB50309ECB502057E007F0122E4FEFF79
:01131D0022AD
:100F00001216D51216631215FAD200C2011215DBA1
:100F1000D200D201D2021215BA2087097857760082
:100F2000087601800BE47865F608F67857F608F63F
:100F30001214738E348F35E535F47003E534F460A4
:100F400020E535640145347006F534F535800CC371
:100F5000740C9535F535E49534F534853440853594
:080F600041E53F70030210148B
:100F6800E4F53F1216E078597C00FDFB7A007928F9
:100F7800FE7F0A1208D01216E97858E61846700360
:100F880002100B7859E6F5097B007A00795912129C
:0B0F9800A7EF4E6066E509644F704D46
:100FA30078697C00FDFB7A00795AFE7F031208D032
:100FB300E4786CF6785DE6786DF67B007A00796903
:100FC3001210EF7863A60608A607786DE6FF33953F
:100FD300E0FEEF24D07868F6EE34FF18F6786576F5
:0D0FE300000876017BFF7A16798A1215014D
:100FF000E509B4531FE47865F608F67BFF7A1679A5
:101000008A800E7BFF7A16798F80067BFF7A1679AD
:041010008F12150125
:09101400E52545247003020F19C3
:10101D00E4F524F52512169BF53B8F3C7866E61812
:10102D004660107863E6FC08E6FD7867E6FE08E6A4
:10103D00FF8008AC3BAD3CAE40AF4112093CE4FC37
:10104D00FD7B64FAF9F81209BC786E120A171216B4
:10105D00E0E47BF77A08F9F8C000786E120A0BD03D
:10106D00001214BD8E438F4485430985440A121620
:10107D00E91216E085453D85463EE4F545F54612F7
:10108D0016E9C3E53E953AF533E53D9539F53285DB
:10109D003D39853E3A750EFF750F16751095853DD8
:1010AD0011853E127B007A00794D120C0012163517
:1010BD007B007A00794D1215637F40121425750E51
:1010CD00FF750F167510958532118533127B007AD9
:0F10DD0000794D120C007B007A00794D121563DB
:0310EC00020F19D7
:10163500C293C297C296C295C294D292C292D295D3
:07164500D292C29202164C82
:1015DB00C293C297C296C295C294D292C292D2962D
:0F15EB00A2009295A2019294D292C29202164C43
:1015BA00C297C296C295C294D292C292D297A20000
:1015CA009296A2019295A2029294D292C292021685
:0115DA004CC4
:10161800C293C297C296C295D294D292C292A2099C
:0D1628009297A20A9296D292C29202164C9C
:1015FA00C297C296D295C294C293D292C29212163E
:0E160A004CD292C292D297D292C29202164C49
:101425008F0BC293D2977D061216AA92967D05AFB1
:101435000B1216AA92957D04AF0B1216AA9294D29E
:1014450092C2927D03AF0B1216AA92977D02AF0B43
:101455001216AA92967D01AF0B1216AA9295E4FD7B
:0E146500AF0B1216AA9294D292C29202164CAB
:10137C008F107D071216AA92977D06AF101216AA2F
:10138C0092967D05AF101216AA92957D04AF10129D
:10139C0016AA9294D293D292C2927D03AF101216D7
:1013AC00AA92977D02AF101216AA92967D01AF10E9
:1013BC001216AA9295E4FDAF101216AA9294D2922C
:0513CC00C29202164C64
:061563008B0B8A0C890DC0
:10156900E4F50EF50FAB0BAA0CA90D850F82850EBC
:101579008312090FFFFD3395E04D600D12137C05B1
:091589000FE50F70E0050E80DC97
:011592002236
:0F16AA00AE05A806EF088003A2E713D8FB1322B2
:10164C00E4FFEFFD3395E0FCC3ED9432EC64809441
:06165C008050030F80EC3A
:011662002265
:0300000002119D4D
:0C119D00787FE4F6D8FD7581710211E442
:10080000E709F608DFFA8046E709F208DFFA803EDA
:1008100088828C83E709F0A3DFFA8032E309F608C7
:10082000DFFA8078E309F208DFFA807088828C832F
:10083000E309F0A3DFFA806489828A83E0A3F608E3
:10084000DFFA805889828A83E0A3F208DFFA804CBD
:1008500080D280FA80C680D4806980F28033801094
:1008600080A680EA809A80A880DA80E280CA8033FD
:1008700089828A83ECFAE493A3C8C582C8CCC58375
:10088000CCF0A3C8C582C8CCC583CCDFE9DEE78045
:100890000D89828A83E493A3F608DFF9ECFAA9F0C4
:1008A000EDFB2289828A83ECFAE0A3C8C582C8CC1A
:1008B000C583CCF0A3C8C582C8CCC583CCDFEADE33
:1008C000E880DB89828A83E493A3F208DFF980CC95
:1008D00088F0EF60010E4E60C388F0ED2402B4048E
:1008E0000050B9F582EB2402B4040050AF23234535
:0608F00082239008507302
:1008F600BB010689828A83E0225002E722BBFE0200
:09090600E32289828A83E4932232
:10090F00BB010CE58229F582E5833AF583E022509D
:10091F0006E92582F8E622BBFE06E92582F8E222E7
:0D092F00E58229F582E5833AF583E4932201
:10093C00EF8DF0A4A8F0CF8CF0A428CE8DF0A42ECF
:02094C00FE2289
:10094E00C2D5EC30E709B2D5E4C39DFDE49CFCEEC4
:10095E0030E715B2D5E4C39FFFE49EFE120A35C3FD
:10096E00E49DFDE49CFC8003120A3530D507C3E4F8
:06097E009FFFE49EFE2233
:10098400BB010789828A83020A8A500B09C5F027B2
:10099400F7C5F01937F722BBFE0D09F8E325F0F38C
:1009A400C5F019E338F322F889828A837401932508
:0809B400F0C5F0F8E4933822CD
:1009BC00E88FF0A4CC8BF0A42CFCE98EF0A42CFCDA
:1009CC008AF0EDA42CFCEA8EF0A4CDA8F08BF0A458
:1009DC002DCC3825F0FDE98FF0A42CCD35F0FCEBB7
:1009EC008EF0A4FEA9F0EB8FF0A4CFC5F02ECD397C
:0F09FC00FEE43CFCEAA42DCE35F0FDE43CFC22E9
:1014BD00C2D5E830E70FB2D5E4C39BFBE49AFAE45A
:1014CD0099F9E498F8EC30E717B2D51214F3120A33
:1014DD00DCE4C39BFBE49AFAE499F9E498F8800301
:1014ED00120ADC30D50DE4C39FFFE49EFEE49DFDA2
:0414FD00E49CFC224D
:0C0A0B00E6FC08E6FD08E6FE08E6FF2217
:0C0A1700ECF608EDF608EEF608EFF6220B
:100BA400E51A240EF8E6051A22780B300702780EAF
:100BB400E475F001120B6E0208F62000EB7F2ED2D2
:100BC400008018EF540F2490D43440D4FF30040B29
:100BD400EF24BFB41A0050032461FFE51B60021523
:100BE4001B051EE51E7002051D30070D780BE4750C
:100BF400F001120B6EEF020A230215937403D2075D
:100C04008003E4C207F51A8B0B8A0C890DE4F51BEB
:100C1400F51DF51EE51B60077F20120BDF80F575BF
:100C24001CFFC201C200C202C203C205C206C2083E
:100C3400120BADFF700D3007057F00120BF0AF1ED5
:100C4400AE1D22B4255FC2D5C204120BADFF24D061
:100C5400B40A00501A75F00A781B30D50508B6FF9F
:100C64000106C6A426F620D5047002D20380D92436
:100C7400CFB41A00EF5004C2E5D204020DF0D20141
:100C840080C6D20080C0D20280BCD2D580BAD20540
:100C940080B47F20120BDF2002077401B51B0040D3
:100CA400F1120BA4FF120BDF020C18D208D206803B
:100CB40095120BA4FB120BA4FA120BA4F94A4B7065
:100CC4000679C17A0E7BFF20022EE51B602A7E0086
:100CD4008E8275830012090F60060EEE651C70F09B
:100CE400C2D5EBC0E0EAC0E0E9C0E0EE120E37D0B6
:100CF400E0F9D0E0FAD0E0FB1208F6FF60AAEBC0FE
:100D0400E0EAC0E0E9C0E0120BDFD0E02401F9D052
:100D1400E03400FAD0E0FBE51C0460DCD51CD9808B
:100D2400877BFF7A0E7933D202809C791080027916
:100D340008C206C2088008D2D5790A8004790AC29A
:100D4400D5E51C047002F51CE4FAFDFEFF120BA4A9
:100D5400FC7B08200113120BA4FD7B1030000A1247
:100D64000BA4FE120BA4FF7B20EC3382D592D5504A
:100D740013C3E43000069FFFE49EFEE42001039DBC
:100D8400FDE49CFCE4CBF8C201EC700CCFCECDCCDE
:100D9400E824F8F870F38017C3EF33FFEE33FEED69
:100DA40033FDEC33FCEB33FB994002FB0FD8E9EB4A
:100DB400300105F8D0E0C448B201C0E00AEC4D4E61
:100DC4004F78207B0070C2EAB51C0040BCC0E01222
:100DD4000E39D0F0D0E0200104C4C0E0C4B201C098
:100DE400F0120BC8D0F0D5F0EB020C18120B7E0CED
:100DF400B5530D2F580C864C0C82420D334F0D3BCE
:0F0E0400440D3B490C9B430D41550D25460D25D3
:100E1300450D25470EE1500C8A2D0C8E2E0CB12B5F
:100E23000C92230CAF200ECA2A0C4A4800000CA9CE
:100E33003F3F3F00790AA2D5200314300509B910BA
:100E4300020404B9080104A2D520060250010420BB
:100E530002689202B51B005034C0E07F20300319B2
:100E63007F30A20272067205500F120E90C202C2A8
:100E730006C205C2087F30800F300503E9C0E012C7
:100E83000BDF300503D0E0F9D0E0B51BCC300517FC
:100E93007F30B9100C120BDF7F583004077F788046
:100EA30003B90803120BDF3002057F2D020BDF7F2E
:100EB300202008F87F2B2006F322920280CF286E91
:100EC300756C6C2900D201120BA43001F8C20178B1
:100ED3001B30D50108F6020C4A2D50434958120B1A
:100EE300A42403B405004001E4900EDC93120BD05C
:0D0EF300743A120BD0D203751B04020D2FB0
:1010EF008B148A158916AB14AA15A9161208F6FFC8
:1010FF00121677500D74012516F516E43515F515F2
:10110F0080E4D200AB14AA15A9161208F6FF642BBF
:10111F006004EFB42D1BAB140516E516AA1570026B
:10112F00051514F91208F6642D6003D38001C392DC
:10113F0000E4F517F518AB14AA15A9161208F6FF57
:10114F001216B95036AB14AA15A9161208F6FF33AA
:10115F0095E0FEEF24D0FBEE34FFFAAE17AF187C0C
:10116F00007D0A12093CEF2BF518EE3AF5177401C2
:10117F002516F516E43515F51580BB300006AE17AC
:0E118F00AF188009C3E49518FFE49517FE22FF
:1011A900020F00E493A3F8E493A34003F68001F24D
:1011B90008DFF48029E493A3F85407240CC8C33347
:1011C900C4540F4420C8834004F456800146F6DF16
:1011D900E4800B01020408102040809013D1E47EC2
:1011E900019360BCA3FF543F30E509541FFEE4930B
:1011F900A360010ECF54C025E060A840B8E493A3D2
:10120900FAE493A3F8E493A3C8C582C8CAC583CAFC
:10121900F0A3C8C582C8CAC583CADFE9DEE780BEB4
:0114240000C7
:100A2300BB010689828A83F0225002F722BBFE01B2
:020A3300F322AC
:100A3500BC000BBE0029EF8DF084FFADF022E4CCA5
:100A4500F875F008EF2FFFEE33FEEC33FCEE9DEC6E
:100A5500984005FCEE9DFE0FD5F0E9E4CEFD22EDB4
:100A6500F8F5F0EE8420D21CFEADF075F008EF2FFE
:100A7500FFED33FD4007985006D5F0F222C398FDEF
:050A85000FD5F0EA228C
:100A8A00C5F0F8A3E028F0C5F0F8E58215827002F7
:060A9A001583E038F02294
:100AA00075F008758200EF2FFFEE33FECD33CDCC0D
:100AB00033CCC58233C5829BED9AEC99E582984090
:100AC0000CF582EE9BFEED9AFDEC99FC0FD5F0D66D
:100AD000E4CEFBE4CDFAE4CCF9A88222B800C1B997
:100AE0000059BA002DEC8BF084CFCECDFCE5F0CBD5
:100AF000F97818EF2FFFEE33FEED33FDEC33FCEB0E
:100B000033FB10D703994004EB99FB0FD8E5E4F9C8
:100B1000FA227818EF2FFFEE33FEED33FDEC33FCB5
:100B2000C933C910D7059BE99A4007EC9BFCE99AA9
:100B3000F90FD8E0E4C9FAE4CCFB2275F010EF2FEE
:100B4000FFEE33FEED33FDCC33CCC833C810D707EE
:100B50009BEC9AE899400AED9BFDEC9AFCE899F829
:0E0B60000FD5F0DAE4CDFBE4CCFAE4C8F922BC
:100B6E00FAE6FB0808E6F925F0F618E6CA3AF62288
:100B7E00D083D082F8E4937012740193700DA3A306
:100B8E0093F8740193F5828883E47374029368601A
:060B9E00EFA3A3A380DF1A
:10159300EFB40A07740D12159E740A309811A899B6
:1015A300B8130CC2983098FDA899C298B811F630B8
:0715B30099FDC299F5992290
:0F16B900EFC394304007EF943A50028001C322F0
:10167700EFC394094005EF940E4003BF2003D380C6
:0316870001C3227A
:00000001FF
